S02200004D494E495F50524F4A4543545F5553494E475F5254435F5351572E73726563D8
S11300000C9434000C9455000C9446000C94460057
S11300100C9446000C9446000C9446000C94460044
S11300200C9446000C9446000C9446000C94460034
S11300300C9446000C9446000C9446000C94460024
S11300400C9446000C9446000C9446000C94460014
S11300500C9446000C9446000C9446000C94460004
S11300600C9446000C94460011241FBECFEFD8E038
S1130070DEBFCDBF21E0A0E0B1E001C01D92A13000
S1130080B207E1F70E9464000C9470010C94000024
S113009083B7817F846083BF83B7816083BF789493
S11300A0889583B78E7F83BF08951F920F920FB6F2
S11300B00F9211248F9381E0809300018F910F9010
S11300C00FBE0F901F90189584B1836084B985B1D9
S11300D0826085B98AB18B7F8AB98BB184608BB910
S11300E0E9E6F0E08081826080838DB381608DBB1E
S11300F078940E945E010F2EFAE1CF2EF02D6894C1
S1130100EE24E1F80BE024E046E169E180E00E949E
S1130110EA0040E06AE186E10E942A010E94480068
S1130120809100018823D1F385B1816085B985B1BF
S11301308D7F85B980E00AC02FEF33ED90E3215025
S113014030409040E1F700C000008F5F8C33A0F393
S113015085B18E7F85B985B1826085B90E945001D1
S11301601092000140E065E282E10E942A01D6CFAC
S11301701092B90088E48093B80084E08093BC00B6
S1130180089584EA8093BC008091BC008823E4F73E
S1130190089584E98093BC0008958093BB0084E8AB
S11301A08093BC008091BC008823E4F708959DEC03
S11301B0899F912D112496959695969520E1929F6D
S11301C0A0011124990F292F220F220F920F891BAE
S11301D0842B0895CF92EF92FF920F931F93CF93A6
S11301E0DF93F82E162FD42FC22F0E94C10080ED6A
S11301F00E94CD0080E00E94CD008F2D0E94D70088
S11302000E94CD00812F0E94D7000E94CD008D2F27
S11302100E94D7000E94CD008C2F0E94D7000E941C
S1130220CD00802F0E94D7000E94CD008E2D0E9409
S1130230D7000E94CD008C2D0E94D7000E94CD00D3
S11302400E94C900DF91CF911F910F91FF90EF9011
S1130250CF9008951F93CF93DF93C82FD62F142FD9
S11302600E94C10080ED0E94CD0087E00E94CD0075
S1130270812F0E94D7000E94CD008D2F0E94D700AD
S11302800E94CD008C2F0E94D7000E94CD0080E8F0
S11302900E94CD000E94C900DF91CF911F91089563
S11302A00E94C10080ED0E94CD008FE00E94CD002D
S11302B080E00E94CD000E94C90008950E94B80009
S11302C00E94C10080ED0E94CD008EE00E94CD000E
S11302D085E00E94CD000E94C9000E94500108954B
S10702E0F894FFCFBC
S9030000FC
