S02200004D494E495F50524F4A4543545F5553494E475F5254435F5351572E73726563D8
S11300000C9434000C9455000C9446000C94460057
S11300100C9446000C9446000C9446000C94460044
S11300200C9446000C9446000C9446000C94460034
S11300300C9446000C9446000C9446000C94460024
S11300400C9446000C9446000C9446000C94460014
S11300500C9446000C9446000C9446000C94460004
S11300600C9446000C94460011241FBECFEFD8E038
S1130070DEBFCDBF21E0A0E0B1E001C01D92A13000
S1130080B207E1F70E9464000C943E010C94000056
S113009083B7817F846083BF83B7816083BF789493
S11300A0889583B78E7F83BF08951F920F920FB6F2
S11300B00F9211248F9381E0809300018F910F9010
S11300C00FBE0F901F90189584B1836084B98AB1D4
S11300D08B7F8AB98BB184608BB9E9E6F0E08081CB
S11300E0826080838DB381608DBB78940E941C01F3
S11300F00E94E1000E944800809100018823D1F30E
S113010085B1816085B985B1826085B980E00AC016
S11301102FEF33ED90E3215030409040E1F700C0E1
S113012000008F5F8C33A0F385B18E7F85B985B1D4
S11301308D7F85B980E00AC02FEF33ED90E3215025
S113014030409040E1F700C000008F5F8C33A0F393
S11301500E943001109200010E94E100CBCF109266
S1130160B90088E48093B80084E08093BC000895CB
S113017084EA8093BC008091BC008823E4F708954E
S113018084E98093BC0008958093BB0084E8809345
S1130190BC008091BC008823E4F708959DEC899FFE
S11301A0912D112496959695969520E1929FA00104
S11301B01124990F292F220F220F920F891B842BB0
S11301C008950E94B80080ED0E94C40087E00E9458
S11301D0C40080E00E94C40080E40E94C4008AE05D
S11301E00E94CE000E94C40080E80E94C4000E94C5
S11301F0C0000895CF930E94B80080ED0E94C4000F
S11302008FE00E94C4000E94B80081ED0E94C400E7
S1130210C091BB000E94C000CE7F0E94B80080ED58
S11302200E94C4008FE00E94C4008C2F0E94C4006E
S11302300E94C000CF9108950E94AF000E94B800B0
S113024080ED0E94C4008EE00E94C40085E00E94FC
S1130250C4000E94C0000E94FA000E94E1000895B8
S11302600E94B80080ED0E94C4008FE00E94C40088
S113027080E00E94C4000E94C0000895F894FFCF5B
S9030000FC
